:020000040800F2
:10000000381300209D010008B51F0008C111000829
:10001000691C00089D0E0008332C00080000000039
:10002000000000000000000000000000492400085B
:10003000A10E000800000000452000088D260008E1
:10004000B7010008B7010008B7010008B7010008B0
:10005000B7010008B7010008B7010008A50E0008A5
:10006000C90E0008ED0E0008B7010008B70100082E
:10007000B7010008B7010008B7010008B701000880
:10008000B7010008B7010008B7010008B701000870
:10009000B7010008B7010008B7010008B701000860
:1000A000B7010008B7010008B7010008B701000850
:1000B000B7010008F9260008B7010008B7010008D9
:1000C000B7010008B7010008B7010008B701000830
:1000D000B701000845280008D5280008B701000826
:1000E000B7010008B7010008B7010008B701000810
:1000F000B7010008B7010008B7010008B701000800
:10010000B7010008B7010008B7010008B7010008EF
:10011000B7010008B7010008B7010008B7010008DF
:10012000B7010008B7010008B7010008B7010008CF
:10013000B7010008B7010008B7010008B7010008BF
:10014000B7010008B7010008B7010008B7010008AF
:10015000B7010008B7010008B7010008B70100089F
:10016000B7010008B7010008B7010008B70100088F
:10017000B7010008B7010008B7010008B70100087F
:10018000B7010008B7010008DFF80CD000F092FCBE
:10019000004800470D5200083813002006488047E9
:1001A00006480047FEE7FEE7FEE7FEE7FEE7FEE75C
:1001B000FEE7FEE7FEE7FEE791260008890100085A
:1001C00030B50B46014600202022012409E021FA27
:1001D00002F59D4205D303FA02F5491B04FA02F524
:1001E0002844151EA2F10102F1DC30BD2DE9F041D9
:1001F0000024061B254671F1000605DA01240027BC
:10020000D0EB070067EB0101161E73F1000605DA5B
:100210000027D2EB0702012567EB030300F0EEFA9B
:1002200086460E4617469C46AC4204D00025D0EBCD
:10023000050E65EB010624B10020D2EB000760EB50
:10024000030C704631463A466346BDE8F0812DE91D
:10025000FE43994615468846074601AC022942D31B
:10026000002D40D000200290A8F101004FF0FF3691
:10027000009022E000FB057201FB057011464A4622
:100280009047002805DC54F82600304444F8260046
:1002900013E060682A4600FB057154F8040C00FB6B
:1002A000057007E00B7890F800C001F801CB00F86A
:1002B000013B521E002AF5D1764254F8040C6168C5
:1002C0008842D7DC4B462A463846FFF7C0FF54F831
:1002D000040C4B46A8EB0001401C00FB05702A46AD
:1002E000491EFFF7B4FFBDE8FE8310B5431A9342E1
:1002F00009D28318881803E010F8011D03F8011DC6
:10030000521EF9D210BD40EA01039B0703D009E059
:1003100008C9121F08C0042AFAD203E011F8013BF1
:1003200000F8013B521EF9D210BDCAB2401E10F8AF
:10033000011F8A4202D00029F9D100207047421CD7
:1003400010F8011B0029FBD1801A704710B500225C
:1003500000E0521C835C8C5CA34201D1002BF8D1DD
:10036000D8B2E1B2401A10BD034611F8012B00F8D3
:10037000012B002AF9D1184670472DE9FE4F80461F
:1003800081EA0300C00F0C46009021F0004123F0E9
:100390000045B8EB0200A94105D2404621469046EF
:1003A0001C460B46024623F00040104347D0270D61
:1003B000C7F30A00C3F30A510290401A0190402883
:1003C0006BDAC3F3130040F4801B0098924620B10F
:1003D0000023D2EB030A63EB0B0B01985946C0F1E3
:1003E0004002504600F03BFA06460D46504659463C
:1003F000019A00F053FA10EB08006141002487EAEB
:10040000115284EAE7731A4340D0009A62B3019A0A
:10041000012A4FEA075215DC001B61EB02014FF085
:10042000004202EA0752CDE90042001C41F580116A
:1004300032462B4600F0D8FA03B0BDE8F08F4046B4
:100440002146F9E7001B61EB0201001C41F5801316
:1004500000185B412018A2F5001747EB030140EAA2
:10046000D570B6196D4111E06D084FEA360645EAC0
:10047000C0754FEA0752001B61EB0201001C41F5F9
:10048000801149084FEA30000019514132462B468D
:1004900003B0BDE8F04F00F098BA00980122400088
:1004A0000023D0EB020263EBE073009821464FEA91
:1004B000E074B8EB000061EB0401E9E783F000436E
:1004C0005BE781F0004158E72DE9FE4F81EA030424
:1004D00004F0004421F0004100944FF0000B23F0A1
:1004E000004350EA01045ED052EA03045BD0C3F338
:1004F0000A54C1F30A552C44A4F2F3340194A0FB2E
:100500000254C1F3130141F48011C3F3130343F404
:10051000801301FB024400FB034E840A970A44EA5D
:10052000815447EA8357A4FB076802958D0A05FBAF
:1005300007854FEA932C04FB0C542705029D4FEAD4
:10054000065847EA1637B5EB08056EEB070C870E21
:10055000920E47EA811742EA8312A7FB0201B6EB2B
:100560000B0164EB00042B0D43EA0C335E1844EBE3
:100570001C50DA465146E7FB0201C5F313044FEA6B
:100580000B3343EA14534FEA0432019C43EA060357
:10059000A4F10C040294009CCDE900B400F024FA0C
:1005A00003B0BDE8F08F00200146F9E72DE9F04DDA
:1005B00081EA030404F0004B21F0004514464FF09B
:1005C000000A23F0004150EA050220D054EA01025B
:1005D0001DD0C5F30A570246C5F31303C1F3130038
:1005E000C1F30A5640F4801543F48013A7EB0608C4
:1005F000101BD64608F2FD3873EB050002D308F154
:10060000010801E092185B41B8F1000F03DA002005
:100610000146BDE8F08D00204FF480110646844667
:100620000EE0171B73EB050705D3121B63EB0503E5
:1006300006434CEA010C49084FEA300092185B412E
:1006400050EA0107EDD152EA030012D082EA040019
:1006500083EA0501084305D0101BAB4106D20122F5
:10066000002306E000224FF0004302E06FF0010299
:1006700053101AEB06004CEB085110EB0A0041EB4B
:100680000B01BDE8F04D00F0A0B90EB540F23341CA
:1006900002910021CDE900110A460B4600F0A4F9B1
:1006A00003B000BD3EB5CA17CB0F002450405140E7
:1006B000C0186141DA0740F233430094CDE90123C9
:1006C0002246234600F090F903B030BD70B5C1F367
:1006D0000A5201F000450024C1F3130140F2FF3338
:1006E00041F480119A4201DA002070BD40F2334398
:1006F0009A42A2F2334203DC524200F0BFF800E01B
:1007000090402C43F1D0404270BDC1F30A5210B565
:10071000C1F3130140F2FF3341F480119A4201DA30
:10072000002010BD40F233439A42A2F2334203DC70
:10073000524200F0A3F810BD904010BD00F00042FE
:1007400030F000400AD0C10D01F56071C0F3160011
:1007500042EA0151C2084007114370470020014698
:100760007047000030B5041E71F1000404DB4FF047
:100770000044404264EB0101141E73F1000405DBE8
:100780001C464FF00043524263EB04038B4208BF08
:10079000824230BD30B5041E71F1000404DB4FF01D
:1007A0000044404264EB0101141E73F1000405DBB8
:1007B0001C464FF00043524263EB0403994208BFCA
:1007C000904230BD01F0004330B421F0004150EAC6
:1007D000010206D00A0DA2F56072C1F31301002ACE
:1007E00002DC30BC00207047440F44EAC104C10061
:1007F000E01830BC00EBC25000F0B0B82DE9F05F5B
:100800000546002092469B4688460646814640247F
:100810001BE0284641464746224600F02FF8534643
:100820005A46C01A914110D311461846224600F08C
:1008300016F82D1A67EB01084F46224601200021C9
:1008400000F00DF817EB00094E41201EA4F1010441
:10085000DFDC484631462A464346BDE8F09F202A61
:1008600004DB203A00FA02F1002070479140C2F107
:10087000200320FA03F3194390407047202A04DB39
:10088000203A21FA02F00021704721FA02F3D04009
:10089000C2F120029140084319467047202A06DB26
:1008A000CB17203A41FA02F043EAE07306E041FA3E
:1008B00002F3D040C2F1200291400843194670472C
:1008C0000FB4002300B589B00CA900910B996FF00B
:1008D0000042CB601E4B06931E4B07930423CDE9C9
:1008E00001321D4A089202466B46002000F07AF958
:1008F00009B05DF814FB70B586B006464FF0FF30C6
:100900000091CDE90101002015460C4604903246C5
:10091000694604A8FFF7D4FF02460498211825B1C0
:1009200008B1084600E020462860049800280DD051
:10093000002A02DD0098884208D0081B0094CDE907
:1009400001043246694604A8FFF7BAFF06B070BD3D
:100950001D0E00083B0E0008D90A00080029A8BF98
:100960007047401C490008BF20F00100704710B4D8
:10097000B0FA80FC00FA0CF050EA010404BF10BC8D
:10098000704749B1CCF1200421FA04F411FA0CF1BA
:1009900018BF012121430843A3EB0C01CB1D4FEAF3
:1009A00000614FEA102042BF002010BC704700EBEE
:1009B000C35010440029A4BF10BC7047401C49001C
:1009C00008BF20F0010010BC704710B5141E73F171
:1009D000000408DA401C41F1000192185B411A43FF
:1009E00001D120F0010010BD2DE9F04D92469B464B
:1009F00011B1B1FA81F202E0B0FA80F220329046F1
:100A0000FFF72DFF04460F4640EA0A0041EA0B01BA
:100A100053465A46084313D0114653EA010019D0F1
:100A2000C8F140025046FFF729FF05460E465046E2
:100A300059464246FFF713FF084305D0012004E062
:100A400020463946BDE8F08D0020054346EAE076B1
:100A50002C4337430A986305E40AA0EB0800002200
:100A6000FD0A44EA47540A3002D500200146E9E76E
:100A7000010510196941DDE9084500196941BDE822
:100A8000F04DA2E7C1F30A52C1F3130140F2FF3364
:100A900041F480119A4202DA00200146704740F288
:100AA00033439A42A2F2334202DC5242FFF7E6BEDF
:100AB000FFF7D5BE064C074D06E0E06840F00103A5
:100AC00094E8070098471034AC42F6D3FFF760FB78
:100AD0007C6100089C610008C0B24FF4F05100F046
:100AE000BDB900002DE9FF4F087881B09946FF2875
:100AF00005D0491C2D2804D00024002308E0002341
:100B00000BE00124F9E703EB830300EB4303491CEB
:100B10000878FF28F7D104B15B42002000901478D8
:100B200001462D2C01D02B2C04D1521C2D2C12D07F
:100B30000024009400251678FF2E0ED00A24A0FB76
:100B400004C801FB0481002700FB0711521C16EBAF
:100B50000C006941EFE70124EBE7994450EA0102F8
:100B60000ED00024AA4D2646DFF8A88200F08AF9AC
:100B700082468B46B9F1000009DAC9F100071BE093
:100B800001980021C0E9001105B0BDE8F08F0746CB
:100B900012E0F80707D022462B4630464146FFF7C1
:100BA00093FC0646884622462B4610461946FFF718
:100BB0008BFC04460D467F10002FEAD1B9F1000FDF
:100BC000324643465046594602DAFFF7EFFC01E051
:100BD000FFF77AFC009A0AB181F00041019AC2E95C
:100BE0000001D1E72DE9FF4F1F468DB0D7E901463F
:100BF0004FF0FF382E2045464FF000090B90B969A1
:100C00006D1C0E988847396A824688470028F6D1BD
:100C1000BAF1FF3F0AD024F4D064002E11DDBAF1FE
:100C20002B0F08D0BAF12D0F0BD102E0404611B0C6
:100C3000ABE744F48064B9696D1C0E98884782461E
:100C4000761E6946600501D52D2000E02B208DF829
:100C5000000001F1010B0DF1200809E0B9696D1CDC
:100C60000E98884782460F9844F40074761E0560FB
:100C7000002E02DDBAF1300FF0D00B998A453ED13B
:100C800044F0800406E00F99681CA9F1010944F4BE
:100C900000740860B9696D1C761E0E9888478246FC
:100CA0003028F0D02BE00B998A4505D1200603D4DB
:100CB00044F08004761E18E0504602F039F908B37B
:100CC0000DF11301761E44F400748B4508D2AAF18D
:100CD00030000BF8010B200607D5A9F1010003E055
:100CE000200602D409F101008146A00502D50F9922
:100CF000681C0860B9696D1C0E9888478246002EF2
:100D0000D1DC53E0002E51DDBAF1650F02D0BAF10B
:100D1000450F4BD1A00549D5B9696D1C24F4407429
:100D2000761E0E9888478246002E0CDD2B2804D0B4
:100D3000BAF12D0F07D144F48074B9696D1C0E9877
:100D400088478246761EE00501D52D2100E02B2143
:100D500008F8011BCDF82C8021E00DF12901761E49
:100D600044F4007488450CD2AAF1300010F0FF0062
:100D700088F8000002D10B99884509D908F10108CB
:100D800006E0E00501D5244801E042F20F708146FB
:100D9000B9696D1C0E98884782460F980560002E31
:100DA00004DD504602F0C4F80028D6D1F9690E9847
:100DB0008847FF208BF8000088F80000002006908C
:100DC00007904B466A4608A906A8FFF78BFEA005C8
:100DD00002D46FF001002AE714F0240F0AD0E007D4
:100DE00014D1DDE906123868031D3B600068C0E9D4
:100DF00000120BE0DDE90601FFF7E4FC0146E00725
:100E000004D13868021D3A600068016028460EE788
:100E1000000024400000F03FF1D8FFFF426842B1DB
:100E2000016811F8013B23B1521EC0E900121846B7
:100E300070470121C160881E704742685AB1C3687B
:100E4000016843B983688B4205D0491E521CC0E932
:100E50000012002070474FF0FF3070477F2801D903
:100E6000002208E0064A02EB5002C007127800D1C7
:100E7000120902F00F020120904008407047000064
:100E8000396100080EB540F2334202920022CDE9EA
:100E900000221346FFF7A8FD03B000BD00BFFEE728
:100EA0007047000010B50A2002F0C4FC022000F0D8
:100EB0004FF810B1002003490870022000F042F8FA
:100EC00010BD00000800002010B50A2002F0B2FC9E
:100ED000042000F03DF810B1002003490870042000
:100EE00000F030F810BD00000800002010B5082008
:100EF00000F02EF810B101200249087008200249C4
:100F0000086010BD62000020143C01401CB50121A6
:100F1000042001F099F84FF40070009001208DF842
:100F2000040000208DF8060001208DF80700032042
:100F30008DF805006946024800F0CAF81CBD0000A3
:100F4000000802400149086070470000143C01405D
:100F500001460020034A12680A400AB1012000E05D
:100F600000207047143C0140002123498279002A67
:100F70003AD00A46126803689A430B461A600A1D63
:100F8000126803689A430B1D1A60027911440A68BB
:100F900003681A430A60184A0832126803689A43C1
:100FA000154B08331A601A1D126803689A43124BD6
:100FB0000C331A604279102A0ED11A1F1268036886
:100FC0001A430D4B08331A601A1D126803681A433E
:100FD000094B0C331A600DE00749427911440A6845
:100FE00003681A430A6005E0027911440A6803683D
:100FF0009A430A6070470000003C014000B585B08C
:101000000121042001F020F800208DF810000E20AE
:10101000039000208DF8130003208DF8110003A920
:101020002A4800F055F80121880301F02DF801212C
:10103000022001F00BFA0221084601F007FA032111
:10104000022001F003FA0E20009000208DF8040029
:1010500008208DF8050001208DF806006846FFF78E
:1010600083FF07208DF8080000208DF8090001207B
:101070008DF80A0008208DF8050001208DF80B007E
:1010800002A800F099FF08208DF8080000208DF8D4
:10109000090001208DF80A0008208DF805000120C4
:1010A0008DF80B0002A800F087FF09208DF80800DA
:1010B00000208DF8090002208DF80A0001208DF82B
:1010C0000B0002A800F078FF05B000BD0008024048
:1010D000F0B50A4600210023002400BF3DE00125B1
:1010E00005FA01F3156805EA03049C4234D105684A
:1010F0004F000326BE40B543056015794E00B5404C
:101100000668354305601579012D02D01579022D49
:1011100016D185684F000326BE40B54385605579DA
:101120004E00B540866835438560456801268E408F
:10113000B5434560456896798E40B6B23543456003
:10114000C5684F000326BE40B543C560D5794E0043
:10115000B540C6683543C560491C1029BFD3F0BDF2
:10116000F0B5002300244D07ED0E02FA05F3CE1072
:1011700000F1200555F826504E07F70E0F26BE4009
:10118000B543CF1000F1200646F82750CE1000F1ED
:10119000200555F8265045EA0304CE1000F120053D
:1011A00045F82640F0BD0246002013690B400BB104
:1011B000012000E0002070474183704701837047A1
:1011C00000BFFEE72DE9F84F04460F4690469946CA
:1011D000C8453CDAA8F1010509F1010608EB090050
:1011E00000EBD071491054F821B017F908000090B5
:1011F0001EE000BF681C054654F820005845F9DB86
:1012000000BF701E064654F820005845F9DCB54270
:1012100000DB0EE054F825A054F8260044F8250021
:1012200044F826A017F905A0B85D785507F806A080
:10123000DFE700BF6B1E424639462046FFF7C2FF7C
:101240004B46721C39462046FFF7BCFF00BFBDE885
:10125000F88F00002DE9F74F2DED068B84B00020AC
:101260000290019012E0DFF8608101E0A8F101082E
:10127000B8F1000FFAD1DDE90A0101F0B1F810EB85
:101280000A0A4BF1000B0198401C019001980A28B2
:10129000E9D30A22002350465946FEF7A7FF064627
:1012A0000F4687E0DDE90A0101F09AF800250446BF
:1012B0000298401C80B202900C98012802D00228AB
:1012C00066D132E0A21B65EB07011046FFF7EAF991
:1012D0009FED3E0B53EC102BFFF7F6F89FED3D0B07
:1012E00053EC102BFFF749F841EC180B51EC180B9D
:1012F000FFF7ECF90146009038A001F09DFC51EC9D
:10130000180BFFF7E3F902463BA100903CA003F065
:10131000F8FD81464FF40071484603F00FFD03903D
:1013200039A0039901F088FC32E0A21B65EB0701AC
:101330001046FFF7B7F99FED360B53EC102BFFF774
:10134000C3F89FED240B53EC102BFFF716F841EC7C
:10135000180B51EC180BFFF7B9F9014600902EA0BD
:1013600001F06AFC51EC180BFFF7B0F9024622A11C
:10137000009023A003F0C5FD81464FF4007148465C
:1013800003F0DCFC039020A0039901F055FC00BFA2
:1013900000BF039802F090FD484603F05EFC48460B
:1013A00002F08AFD48F6FF7801E0A8F10108B8F1E3
:1013B000000FFAD102989628FFF674AF04B0BDEC86
:1013C000068BBDE8FE8F0000FFFF0F0079E9263194
:1013D00008AC7C3F00000000000022407269676892
:1013E000745F74686967685F737472656E67746848
:1013F0003A20256420670A007765696768740000F1
:101400007B73697D0000000025730D0A0000000059
:10141000FCA9F1D24D62803F6C6566745F746869A7
:1014200067685F737472656E6774683A202564201C
:10143000670A00002DE970422DED108B85B0002465
:10144000002624E00821102000F0CAFF8146FFF7A3
:101450001CF941EC1E0B53EC192BFEF78EFF41ECEF
:10146000190B052002F026FA0221042000F0B8FF33
:101470008146FFF70AF941EC1E0B53EC1A2BFEF7DD
:101480007CFF41EC1A0B052002F014FA761C052EA5
:10149000D8D39FED480B53EC102B51EC190BFFF7F1
:1014A00085F841EC1B0B9FED430B53EC102B51ECDB
:1014B0001A0BFFF77BF841EC180B72E008211020A3
:1014C00000F08EFF8146FFF7E0F841EC1C0B052091
:1014D00002F0F0F90221042000F082FF8146FFF7BC
:1014E000D4F841EC1D0B052002F0E4F9601C84B235
:1014F00053EC1B2B51EC1C0BFEF7E0FF41EC1F0BD8
:101500009FED2E0B53EC102BFEF7DEFF41EC1E0B74
:101510009FED2C0B53EC102BFEF72FFFCDE90201B2
:1015200053EC182B51EC1D0BFEF7C8FF41EC1F0BC1
:101530009FED220B53EC102BFEF7C6FF41EC1E0B68
:101540009FED200B53EC102BFEF717FFCDE90001A8
:101550009DED020B53EC102B1CA001F06DFB052040
:1015600002F0A8F99DED000B53EC102B1EA001F02A
:1015700063FB504602F0A0FC384603F06EFB384691
:1015800002F09AFC584602F097FC404603F065FBD7
:10159000404602F091FC48F6FF7500E06D1E002DFC
:1015A000FCD1B4F5967F89DB05B0BDEC108BBDE8AE
:1015B000708200000000000000001440FA7E6ABC47
:1015C0007493783F000000000000224061726D5F5C
:1015D00072696768745F737472656E74683A202507
:1015E0002E30660A0A00000061726D5F6C656674D9
:1015F0005F737472656E74683A20252E30660A0037
:101600002DE9B04E2DED028B89B0002007904FF0F0
:10161000AA0B4DA3D3E90020D3E9021304AC0BC4F9
:1016200003924DA14F4801F09DF900BF4E4800883C
:1016300000F40040002879D003A94C48FEF786FE4C
:1016400000286DD14A48007801282BD10020494953
:10165000088041A1434801F085F900BF4548008852
:1016600000F400400028F9D0424890F800A0424819
:1016700001F05AFBB0EE408AF0EE608A51EC180B94
:10168000FFF724F80FFA80FB002404E000203A4919
:101690000855601CC4B25445F8DB00203549088069
:1016A000334908700221042000F09AFE0746052005
:1016B00002F000F90821102000F092FE05460520F6
:1016C00002F0F8F82DA12FA33A46CDE9011B0095B1
:1016D0002EA130A003F015FC81464FF4007148465E
:1016E00003F02CFB08902EA0089901F0A5FA0898A9
:1016F00002F0E2FB484603F0B0FA484602F0DCFB99
:10170000194890F800A0002017490880002404E040
:10171000002016490855601CC4B25445F8DB05E0AA
:1017200021A11248FEF712FE00B900E07EE700BFDB
:1017300021A10C4801F016F9082002F07BF809B04D
:10174000BDEC028BBDE8B08E6261636B5F73747237
:10175000656E677468000000726571756972650D69
:101760000A000000004400406C000020A801002096
:10177000620000206E00002070020020686569672A
:101780006874000072696768740000006C656674B4
:10179000000000007B7369736973697D00000000BD
:1017A00025730D0A00000000737472656E6774681B
:1017B000427265616B000000627265616B0D0A0028
:1017C0002DE9F04786B006464FF001090027B846DC
:1017D00037E03146684600F0CBF99DE8070003ABDF
:1017E00007C30398074408F101004FFA80F8B8F1E5
:1017F000020F26D13A4615A117A003F082FB054639
:101800004FF40071284603F099FA8246514614A01D
:1018100001F012FA504602F04FFB2C464CB16068C2
:10182000401C30B16068401E606010B9204603F073
:1018300046FA00BF284602F03FFB4FF000080027A1
:1018400000E0C6E700BF06B0BDE8F08768656172DA
:1018500074726174650000007B73697D0000000094
:1018600025730A0D00000000F8B507460C46154622
:101870001E462B462246AE213846009602F0E0FE78
:10188000F8BD70B505460C462246AE21284602F04A
:1018900013FF70BD1FB504469DF8042002212046A9
:1018A00000F05AF99DF805200321204600F054F974
:1018B0009DF806200821204600F04EF99DF80720EB
:1018C0000921204600F048F99DF808200A21204609
:1018D00000F042F99DF809200C21204600F03CF967
:1018E0009DF80A200D21204600F036F99DF80B20C6
:1018F0001021204600F030F99DF80E2021212046CD
:1019000000F02AF99DF80F203021204600F024F93C
:101910001FBD000070B5064680220921304600F048
:101920001BF900201B4908701B4908701B490870EF
:101930001B49087000240F2514E01A4805551A4861
:1019400005550020194941F82400194941F824009F
:10195000184941F82400184941F82400601C44B299
:10196000681E45B20F2CE8DB00201049C8631049FF
:10197000C8630021114A11605160114A1160516021
:10198000104A106050601049087001200F4908701B
:1019900070BD0000290000202B0000202A0000203C
:1019A0002C0000200900002018000020B0000020BA
:1019B000F0000020300100206C01002038000020E1
:1019C000400000204800002050000020510000206E
:1019D0003EB5054640220921284600F0BDF85020BA
:1019E0008DF8000002208DF8010012208DF8020011
:1019F00003208DF8030012208DF8040001208DF8DB
:101A00000A008DF805008DF8060002208DF8070009
:101A100001208DF80B0028469DE80E00FFF73AFFE5
:101A2000012042490870424908706B208DF804007B
:101A3000F0208DF805008DF8060006208DF80700CF
:101A400002208DF80B0028469DE80E00FFF722FFCC
:101A500000BF00BF00212846FFF713FF00F0400041
:101A60004028F7D10623334A07212846FFF7FCFE1A
:101A700030480078C0032F49497840EAC1102D4909
:101A8000897840EA61002C492C4A92F9002041F8FB
:101A900022002848C078C0032649097940EAC110CD
:101AA0002449497940EA61002549264A92F90020F3
:101AB00041F82200234800780F2805D10020214951
:101AC00008701E4908700BE01E480078401C40B2A8
:101AD0001C49087019480078401C40B2174908702A
:101AE0001748184991F9001050F82100164988420A
:101AF000AFDB144800780F28ABD100240DE010486C
:101B000050F82400114941F824000B4850F82400F3
:101B10000F4941F82400601C44B20F2CEFDB0E2368
:101B200000220C490948FFF74DFB3EBD270000206D
:101B3000280000202D000020F000002029000020B7
:101B4000B00000202B00002020D613003001002020
:101B50006C0100200900002070B506460C461546B1
:101B60002B462246AE21304602F086FF70BD0000B3
:101B7000FEB504460D4600BF0022AE21284602F005
:101B80009BFD00F040004028F6D10623324A072191
:101B90002846FFF769FE30480078C0032E4949788F
:101BA00040EAC1102C49897840EA610001902A4836
:101BB000C078C0032849097940EAC110264949790B
:101BC00040EA610002900198C117244B0CCB801AA7
:101BD00061EB0301C00940EA4160CE111F490CC905
:101BE0000146891846EB03001C4AC2E9001002981E
:101BF000C1171B4AD2E90032C01A61EB0201400949
:101C000040EAC1604E1116490CC90146891846EBDD
:101C10000300134AC2E90010029800900098C1170F
:101C2000104AD2E90032C01A61EB0201400940EAD1
:101C3000C16348110B4A06CA59185041094AC2E902
:101C40000010114600980968401A00909DE80700AE
:101C500084E80700FEBD00002D00002038000020B1
:101C6000400000204800002000BFFEE72DE9F047BB
:101C70002DED088B0020B94908806BE1B74800883A
:101C800000F400400028F8D0B4480578B44E30463F
:101C900001F04AF8B0EE408AF0EE608A51EC180B81
:101CA000FEF790FDAF4908600020AC490880002491
:101CB00005E000203055AA490855601CC4B2AC426A
:101CC000F7DBA8480068FEF739FD41EC180B9FEDE3
:101CD000A60B53EC102BFEF75DFD0CD3A14800685A
:101CE000FEF72CFD41EC180B9FEDA10B53EC102BD4
:101CF000FEF738FD25D200229FA1A1A003F001F933
:101D000081464FF40071484603F018F8804641467A
:101D10009DA000F091FF002404E0002090490855A8
:101D2000601CC4B2AC42F8DB404602F0C5F848463D
:101D300002F085FF484602F0BFF8BDEC088BBDE815
:101D4000F08793480078E8B3864890ED000A914800
:101D5000D0ED000A30EE600A8F4880ED000A81481D
:101D600090ED000A8B48D0ED000AB4EEE00AF1EEE7
:101D700010FA03DD01208949087002E0002087493C
:101D8000087085480068FEF7D9FC41EC1B0BB0EEEB
:101D90004B0AF0EE6B0A00F0E3FFB0EE40AAF0EE63
:101DA00060AA9FED7F0B53EC102B51EC1A0BFEF742
:101DB0008BFB41EC190B9FED7C0B53EC102BFEF7CA
:101DC00083FB00E00FE041EC180BFEF79EFC07469A
:101DD00039467248007800F0F9FB6D480078401EE3
:101DE0006B4908708DE05F4890ED000AB5EEC00ABF
:101DF000F1EE10FA3DDB01206D49087003E0082187
:101E0000012000F0E3FB6A4800780128F7D055482C
:101E100090ED000AF2EE040A30EEC00A10EE101A3D
:101E20000846FEF78BFC41EC1B0BB0EE4B0AF0EEC4
:101E30006B0A00F095FFB0EE40AAF0EE60AA9FEDAD
:101E4000580B53EC102B51EC1A0BFEF73DFB41ECF9
:101E5000190B9FED550B53EC102BFEF735FB41ECA6
:101E6000180BFEF752FC07463946002000F0AEFB87
:101E700044E03C4890ED000AB5EEC00AF1EE10FADD
:101E80003CD801204A49087003E00821002000F0F6
:101E90009DFB474800780128F7D0324890ED000AB2
:101EA000F2EE040A30EE200A10EE101A0846FEF791
:101EB00045FC41EC1B0BB0EE4B0AF0EE6B0A00F058
:101EC0004FFFB0EE40AAF0EE60AA9FED350B53EC49
:101ED000102B51EC1A0BFEF7F7FA41EC190B9FEDA2
:101EE000320B53EC102BFEF7EFFA41EC180BFEF718
:101EF0000CFC07463946012000F068FB032024490A
:101F00000870184890ED000A224880ED000A01226E
:101F100019A11BA002F0F5FF81464FF4007148465D
:101F200002F00CFF8046414617A000F085FE002419
:101F300004E000200A490855601CC4B2AC42F8DB3A
:101F4000404601F0B9FF484602F079FE484601F0EC
:101F5000B3FF00E092E600BF00BFEEE66C00002099
:101F6000A8010020540000200000000000002340D1
:101F700000000000000023C073746174650000005D
:101F80007B73697D0000000025730D0A00000000CE
:101F900061000020580000205C000020600000204C
:101FA0000000000000006940000000000000304018
:101FB000080000207047000070B5002100230F22A8
:101FC000C4781CB3174C246804F4E064C4F5E064DE
:101FD000C4F30721C1F10404E3B20A4144789C40F0
:101FE000E1B28478144021430C07210E0E4C057891
:101FF0006155047804F01F050124AC4005786D118B
:10200000AD0005F1E025C5F8004109E0047804F0D1
:102010001F050124AC40054D0678761145F8264091
:1020200070BD00000CED00E000E400E080E100E0A5
:1020300002490143024A1160704700000000FA059E
:102040000CED00E07047000029B1064A1268024317
:10205000044B1A6004E0034A12688243014B1A6081
:10206000704700003038024029B1064A1268024326
:10207000044B1A6004E0034A12688243014B1A6061
:10208000704700004038024029B1064A12680243F6
:10209000044B1A6004E0034A12688243014B1A6041
:1020A0007047000044380240F0B5002100220024AF
:1020B000022500260223324F3F6807F00C0121B1B0
:1020C000042905D0082937D105E02E4F076036E0F6
:1020D0002D4F076033E02A4F3F1F3F68C7F38056FC
:1020E000274F3F1F3F6807F03F036EB1264FB7FBF6
:1020F000F3F7DFF88CC0ACF1040CDCF800C0CCF3D3
:10210000881C07FB0CF40CE01E4FB7FBF3F7DFF85D
:1021100070C0ACF1040CDCF800C0CCF3881C07FBE9
:102120000CF4174F3F1F3F68C7F301477F1C7D002A
:10213000B4FBF5F7076002E0124F076000BF00BF75
:102140000F4F3F6807F0F0010909104F7A5C0768EC
:10215000D74047600A4F3F6807F4E051890A0B4FA8
:102160007A5C4768D7408760054F3F6807F4604155
:10217000490B064F7A5C4768D740C760F0BD000046
:10218000083802400024F40000127A007000002099
:102190001CB501210220FFF757FF01208DF8040034
:1021A00000208DF8060043F2F000009001208DF829
:1021B000070002208DF8050069460F48FEF788FFEA
:1021C0004FF480510C48FEF7F9FF4FF400510A48D4
:1021D000FEF7F4FF10210848FEF7F0FF2021064823
:1021E000FEF7ECFF40210448FEF7E8FF802102489B
:1021F000FEF7E4FF1CBD00000004024010B50446D9
:1022000002480480502001F055FB10BD1A04024022
:102210002DE9F04105460E46002717240CE025FA6B
:1022200004F000F001071FB1304600F019F802E099
:10223000304600F005F8641E002CF0DABDE8F081AD
:1022400010B5044605480480012001F00FFB034847
:10225000801C04800A2001F009FB10BD1804024014
:1022600010B5044605480480062001F0FFFA034833
:10227000801C0480062001F0F9FA10BD1804024009
:102280002DE9F0472DED028B96E04E48008800F4D2
:1022900000400028F8D04B4890F800804A4800F0F1
:1022A00043FDB0EE408AF0EE608A51EC180BFEF769
:1022B0002CFA07460A20B7FBF0F100FB1176012E3D
:1022C00001DA062E16DC072E13D2DFE806F0120420
:1022D000070A0C0E10004FF480540AE04FF400542B
:1022E00007E0102405E0202403E0402401E08024DE
:1022F00000BF00BF0A20B7FBF0F7B7F1807F4FD2D5
:10230000A0B2FFF77BFFA0B2FFF778FFA0B2FFF704
:1023100075FFA0B2FFF772FFA0B2FFF76FFFA0B288
:10232000FFF76CFFA1B23846FFF772FFA1B2384643
:10233000FFF76EFFA1B23846FFF76AFFA1B2384639
:10234000FFF766FFA1B23846FFF762FFA1B2384639
:10235000FFF75EFF01221DA11DA002F0D2FD824603
:102360004FF40071504602F0E9FC814649461AA03C
:1023700000F062FC484601F09FFD504602F05FFC11
:10238000504601F099FD002504E000200E49485513
:10239000681CC5B24545F8DB00200A4908800CE0FE
:1023A000002504E0002008494855681CC5B2454591
:1023B000F8DB00200349088067E700BFBDEC028B13
:1023C000BDE8F0876C000020A8010020596573006B
:1023D0007B73697D0000000025730D0A000000007A
:1023E0002DE9F04106460F4631461648FEF7E4FE59
:1023F000002400BF39461348FEF7D5FE0028F9D166
:10240000002510E031460F48FEF7D8FE6400314643
:102410000C48FEF7D1FE39460A48FEF7C4FE00B16B
:10242000641C681C85B2182DECDB31460548FEF7AC
:10243000C5FE84F4000431460248FEF7BDFE204686
:10244000BDE8F081000C02407047000030B500226A
:102450008B071C0F0F2303FA04F20B4B8C1053F85D
:1024600024309343084C8D1044F8253023468C10BB
:1024700053F824308C07240F00FA04F42343024C51
:102480008D1044F8253030BD083801400CB50020CF
:10249000019000903448006840F480303249086070
:1024A00000BF3148006800F4003000900198401CE3
:1024B0000190009818B90198B0F5A04FF1D12A48C1
:1024C000006800F4003010B10120009001E000200D
:1024D00000900098012846D123484030006840F021
:1024E00080502149403108602048006840F4404055
:1024F0001E4908601C48083000681B490831086004
:102500000846006840F4004008600846006840F44F
:10251000A05008601648091F0860081F006840F0B6
:102520008070091F086000BF0F48006800F000704D
:102530000028F9D040F205700E4908600A480830BA
:10254000006820F003000849083108600846006868
:1025500040F00200086000BF03480830006800F047
:102560000C000828F8D10CBD003802400070004073
:1025700008544007003C02401CB501210846FFF703
:1025800063FD01208DF8040000208DF806008020F6
:10259000009002208DF8050069460A48FEF798FD74
:1025A00001208DF804008DF80600402000900220E4
:1025B0008DF8050069460348FEF78AFD01200249AF
:1025C00008701CBD000002400800002070B50546E0
:1025D0000E46012D04D140210D48FEF7EFFD03E02A
:1025E00040210B48FEF7E8FD00240EE0802108485A
:1025F000FEF7E4FD392001F05DF980210448FEF783
:10260000DBFDAC2001F056F9641CB442EED970BD7C
:10261000000002401CB501210820FFF715FD45F21E
:102620002A50009000208DF8040002208DF8070049
:1026300069460B48FEF74CFD4AF6542000900120F5
:102640008DF8040000208DF806008DF805000120AB
:102650008DF8070069460248FEF73AFD1CBD0000F0
:10266000000C0240042808D14FF0E021096941F034
:1026700004014FF0E022116107E04FF0E021096909
:1026800021F004014FF0E022116170477047000013
:1026900010B51548006840F47000134908601348ED
:1026A000006840F001001149086000200F4908311E
:1026B00008600E4800680E4908400C4908600D4843
:1026C000091D0860081F006820F48020091F0860A9
:1026D000002006490C310860FFF7D8FE4FF000607B
:1026E00001498039086010BD88ED00E000380240E3
:1026F000FFFFF6FE1030002410B50121054800F060
:1027000044F8012801D103F081FC0121014800F0C7
:102710002DF810BD000400407FB505460C4602951B
:10272000ADF804400020ADF80600ADF80C0001A99A
:102730000D4800F045F8012211460B4800F036F82C
:102740000121094800F015F81D208DF80000012036
:102750008DF8010003208DF8020001208DF80300A0
:102760006846FFF729FC7FBD00040040CA4302828F
:10277000704721B1028842F00102028004E0028821
:102780004FF6FE731A400280704730B502460020B3
:1027900000230024158A05EA0103958905EA01044E
:1027A00013B10CB1012000E0002030BD1AB18389C3
:1027B0000B43838102E083898B4383817047000050
:1027C00000220288184B98420ED0184B98420BD02A
:1027D000B0F1804F08D0164B984205D0154B984267
:1027E00002D0154B984204D14FF68F731A404B8894
:1027F0001A43124B984207D0114B984204D04FF61F
:10280000FF431A400B891A4302804B68C3620B884E
:102810000385054B984202D0044B984201D18B7A34
:1028200003860123838270470000014000040140B9
:102830000004004000080040000C00400010004070
:102840000014004010B540F225511F4800F02FF948
:1028500010B31D4800F0E4F9C4B21C48008800F42D
:102860000040C8B91948008800F4804060B10A2CC3
:1028700003D000201549088020E01448008840F467
:1028800000401249088019E00D2C06D10F4800883D
:1028900040F480400D49088010E00C480088C0F3E7
:1028A0000D000B490C5409480088401C074908805A
:1028B00008460088C72801DD002008802021024842
:1028C00000F0D3F810BD0000001001406C000020A3
:1028D000A801002010B540F225511F4800F0E7F88C
:1028E00010B31D4800F09CF9C4B21C48008800F4E5
:1028F0000040C8B91948008800F4804060B10A2C33
:1029000003D000201549088020E01448008840F4D6
:1029100000401249088019E00D2C06D10F480088AC
:1029200040F480400D49088010E00C480088C0F356
:102930000D000B490C5409480088401C07490880C9
:1029400008460088C72801DD0020088020210248B1
:1029500000F08BF810BD0000004400406E00002025
:10296000700200200FB470B586B006460CA8019026
:1029700073E00B9800785C281CD10B98401C0B90DE
:1029800000786E2809D072280FD10D21304600F052
:102990004CF90B98401C0B900BE00A21304600F0DC
:1029A00044F90B98401C0B9003E00B98401C0B90D3
:1029B00000BF4BE00B980078252840D10B98401CB5
:1029C0000B900078642818D0732833D1019810C870
:1029D00001900BE02178304600F027F900BF8021FC
:1029E000304600F057F80028F9D0641C2078002801
:1029F000F0D10B98401C0B9020E0019820C801906A
:102A00000A2202A9284602F06DF802AC0BE02178F8
:102A1000304600F00AF900BF8021304600F03AF855
:102A20000028F9D0641C20780028F0D10B98401CB5
:102A30000B9003E00B98401C0B9000BF06E00B9836
:102A400010F8011B0B90304600F0EFF800BF80211A
:102A5000304600F01FF80028F9D00B9800780028C5
:102A600087D106B070BC5DF814FB01F40072B2F5BA
:102A7000007F00D100BFCA430280704721B1828924
:102A800042F40052828104E082894DF6FF731A40BD
:102A90008281704702460020B1F5007F00D100BF5F
:102AA00013880B400BB1012000E00020704770B587
:102AB0000246002400230025002040F66A16B14299
:102AC00000D100BFC1F3421501F01F03012606FA31
:102AD00003F3012D02D19689334006E0022D02D185
:102AE000168A334001E0968A33400C12012606FA1A
:102AF00004F41688344013B10CB1012000E000202A
:102B000070BDF0B50346002400260025002040F6E5
:102B10006A17B94200D100BF1846C1F3421401F050
:102B20001F06012707FA06F5012C01D10C3004E03D
:102B3000022C01D1103000E014301AB107682F4385
:102B4000076002E00768AF430760F0BD2DE9FF476B
:102B500005460E460024A14600BFA046B08900B13C
:102B600000BF2C8A24F44054F08804432C82AC89A2
:102B700041F20C608443B08831890843718908436D
:102B80000443AC81AC8A24F44074B0890443AC8221
:102B90006846FFF789FA2048854202D01F488542DF
:102BA00002D1DDF80C9001E0DDF80890A88900F46E
:102BB000004040B109EBC90000EB09103168490041
:102BC000B0FBF1F707E009EBC90000EB0910316831
:102BD0008900B0FBF1F76420B7FBF0F00401200995
:102BE000642101FB1078A88900F4004040B1322034
:102BF00000EBC800B0FBF1F000F00700044308E070
:102C0000322000EB08106421B0FBF1F000F00F005F
:102C100004432C81BDE8FF870010014000140140EF
:102C200001468888C0F308007047C1F3080282801B
:102C3000704700BFFEE700000FB4054B10B503A9B5
:102C4000044A029800F07CF910BC5DF814FB000007
:102C50009D3E0008680000200FB41CB5024600200D
:102C600007AC00290BD0491ECDE90021054B6A466F
:102C70002146069800F064F9009A002111701CBCEE
:102C80005DF814FB6F3600080FB4084B10B504A9AB
:102C900002AA039800F054F9044602A9002000F0AB
:102CA000F1FC204610BC5DF814FB000085360008DE
:102CB0007CB5044600201D46164600290BD0491E4F
:102CC000CDE90041044B6A462946304600F038F908
:102CD000009A002111707CBD6F36000830B4744634
:102CE000641E2578641CAB4200D21D46635D5B0008
:102CF000E31830BC1847012249005205D14201D1E6
:102D0000002801D00020704701207047002800D023
:102D100001200143480002494008081AC00F7047CB
:102D20000000F07F0000000030B583B0044600F0E2
:102D300021F89FED090B05468DED000B0022214681
:102D40006846FDF7D8FD284600F02AF89DED000BF7
:102D500003B030BD000000000000000000000000D3
:102D60002DED020B019820F0004001909DED000B2D
:102D700002B070470148006870470000A4000020BE
:102D800002E008C8121F08C1002AFAD17047704734
:102D9000002001E001C1121F002AFBD17047000092
:102DA0000149086070470000A40000202DE9FF5F82
:102DB00082B00021DDE90430020DDDF840B00343AC
:102DC00018D044F61050A2F2FF3242431514119865
:102DD00001281FD0A5EB0B00401C5FEA000A4FF052
:102DE00000064E4FDFF83891B046504615D5CAF16F
:102DF000000413E0119801244AA3012801D16FEACD
:102E00000B010298119AC0E90031C0E9024206B0F4
:102E1000BDE8F09FCBF10000DFE704460021404A07
:102E2000491842EB0450CDE9001012E0E00707D04A
:102E300032463B4640464946FDF746FB80468946BA
:102E400032463B4610461946FDF73EFB06460F4606
:102E50006410002CEAD1DDE90401DDE90023BAF1B8
:102E6000000F06DAFDF730FB42464B46FDF72CFB20
:102E700005E0FDF79BFB42464B46FDF797FB0446FA
:102E80000E460022284BFDF785FC03D84FF0FF309B
:102E9000014607E00022254B20463146FDF76DFA3A
:102EA000FDF7F0FD102409E0002C0ADB0A220023C4
:102EB000FDF7A4FC039B30321A55641E50EA010250
:102EC000F2D1641C039AC4F111031444119A012A2B
:102ED00003D0012208430DD10AE0084304D00020AA
:102EE0004FF0110B119072E7A3EB0B056D1E0DE077
:102EF0005B4504DD4FF0000205F1010504E003DA53
:102F00004FF00002A5F10105002AECD002981199BA
:102F1000C0E90231C0E9004579E700000000144033
:102F20000000F03F300000000000F0430000E03FF0
:102F300030380A2801D20120704700207047000075
:102F40002DE9FF4F95B09B468946064600250FE2C6
:102F5000252877D100242746F84A0121059400E06E
:102F6000044316F8013F203B01FA03F01042F7D169
:102F700030782A2811D06FF02F033078A0F130027A
:102F8000092A16D8059A44F0020402EB820203EBE8
:102F900042021044761C0590EFE759F8042B059285
:102FA000002A03DA504244F40054059044F002042D
:102FB000761C30782E2816D116F8010F44F0040440
:102FC0002A280DD06FF02F023078A0F13003092BA2
:102FD00009D807EB870302EB4303C718761CF3E716
:102FE00059F8047B761C30786C280FD006DC4C280E
:102FF00017D068280DD06A2814D104E0742810D0A6
:103000007A280FD10DE044F400140AE044F480144F
:1030100001E044F440147278824202D104F5801435
:10302000761C761C307866280BD013DC582877D0B5
:1030300009DC002875D04528F6D04628F4D047286A
:103040001AD19DE118E0632835D0642879D065282D
:1030500012D195E1702873D008DC6728F1D0692877
:103060006FD06E280DD06F2806D1B5E073282CD014
:10307000752875D0782874D05A46179990476D1CDA
:1030800075E1C4F30250022809D003280DD0D9F805
:10309000001004280DD00D6009F1040967E1D9F88A
:1030A0000010EA17C1E90052F6E7D9F800100D80C8
:1030B000F2E70D70F0E719F8041B8DF800100020FE
:1030C0008DF80100EA46012003E059F804AB4FF007
:1030D000FF3061074FF0000102D40DE008F101015B
:1030E0008846B9420FDA8045F8DB1AF80810002943
:1030F000F4D108E008F1010188468142FADB1AF8B0
:1031000008100029F6D105985B46A0EB0807214678
:103110003846179A00F094FA284400EB080507E0B7
:103120004DE029E10DE01AF8010B5A461799904736
:10313000B8F10108F7D25B4621463846179A13E1E9
:1031400042E00A220092C4F302524FF0000A022A1F
:1031500008D059F804CB032A4FEAEC710AD00DE0ED
:1031600029E02AE009F1070121F00702F2E802C193
:10317000914609E00FFA8CFC4FEAEC71042A03D166
:103180004FFA8CFC4FEAEC71002907DA0A4600215D
:10319000DCF1000C61EB02012D2202E0220504D5D6
:1031A0002B228DF80420012203E0E20701D0202227
:1031B000F7E7904659E00A2102E010220DE01021C5
:1031C0004FF0000A00910BE010224FF0000A44F08B
:1031D00004040827009203E008224FF0000A00923E
:1031E000C4F30252022A05D059F804CB0021032A65
:1031F00008D009E009F1070121F00702F2E802C155
:10320000914605E01FFA8CFC042A01D10CF0FF0C5A
:103210004FF00008220728D5702806D0009B83F0C5
:10322000100353EA0A0305D00EE040228DF8042073
:10323000012208E05CEA010206D030228DF8042069
:103240008DF8050002229046009B83F0080353EAA4
:103250000A030AD15CEA010201D1620705D53022D6
:103260008DF804204FF001087F1E582804D034A0A8
:1032700003900EA802900DE036A0F9E75346604691
:10328000009AFDF7BBFA84460398825C0298401EC0
:10329000029002705CEA0100F0D1029806A9081AB7
:1032A00000F1200A600702D524F4803400E00127F1
:1032B000574502DDA7EB0A0000E0002000EB0A0101
:1032C000009005984144401A0590E00306D45B46FF
:1032D0002146179A059800F0B3F90544002706E047
:1032E00001A85A46C05D179990476D1C7F1C474541
:1032F000F6DBE0030CD55B462146179A059800F0F3
:103300009FF9054404E030205A46179990476D1CF8
:103310000099481E00900029F5DC08E00298029907
:103320005A460078491C0291179990476D1CBAF1D2
:103330000001AAF1010AF1DC65E1000009280100A1
:10334000303132333435363738396162636465661B
:1033500000000000303132333435363738394142DD
:10336000434445460000000000F058F90544761C2F
:10337000307800287FF4ECAD19B02846BDE8F08F16
:10338000620700D4062709F1070222F0070CFCE8C7
:103390000223E14603F000485FEA080C02D00FF276
:1033A000702C0DE05FEA045C02D50FF2682C07E098
:1033B0005FEAC47C02D00FF2602C01E0AFF2700C27
:1033C0004FF0FF3823F00043CDF850C065280CD0F3
:1033D00006DC452809D046281DD047283DD13DE0D0
:1033E000662818D067287ED138E00021112F01DB34
:1033F000112000E0781CCDE9000106A90EA8FFF716
:10340000D5FCDDE90F010E9A03910021009207F12E
:10341000010A04914DE04FF000400097CDE9011002
:1034200006A90EA8FFF7C2FCDDE90F0203920E9B6E
:1034300011990022DDF80CA00093049211B9791CB7
:1034400000EB010AB7EB0A0004D4C0F1FF3007F12A
:10345000010A0490AAEB0700019044E0012F00DA72
:1034600001270021112F01DD112000E03846CDE9B0
:10347000000106A90EA8FFF799FCDDE90F010E9ADD
:103480000391002104910092BA4621070CD40399BC
:10349000514500DA8A46BAF1010F05DD009AAAF11A
:1034A0000101515C302908D0B84202DA10F1040F52
:1034B00006DA0121CDE9011015E0AAF10101E9E7E1
:1034C000002805DC049901440491AAEB000102E004
:1034D000411C514500DD8A460499401A401C019068
:1034E0004FF000400290200704D40198504501DBC2
:1034F000CDF8048000208DF84F0002980DF14F07A1
:10350000B0F1004F25D02B200E9002984FF002080A
:1035100000280CDA404202902D200E9007E00A218C
:103520000298FCF74DFE3031029007F8011DB8F10A
:103530000001A8F10108F2DC02980028EFD1791E01
:103540000E980870307800F0200040F0450007F831
:10355000020D12A8C01B00F107081498007800B1F2
:10356000012000EB0A01019801EBE071059841444C
:10357000401A401E0590E00306D45B462146179A88
:10358000059800F05DF805441498007818B15A4683
:10359000179990476D1CE00324D55B462146179A86
:1035A000059800F04DF805441CE00498002807DB5E
:1035B000DDE90301884203DD0098405C179901E0D2
:1035C000179930205A469047049805F10105401C90
:1035D00004900198401E019004D12E205A4617995C
:1035E00090476D1CBAF10001AAF1010ADDDC05E08B
:1035F00017F8010B5A46179990476D1CB8F1000156
:10360000A8F10108F4DC5B462146179A0598ABE661
:103610002D0000002B000000200000002DE9F041EB
:10362000044600251E461746880404D405E03946A2
:103630002020B0476D1C641EF9D52846BDE8F081F6
:103640002DE9F041044600251E469046C80301D5E9
:10365000302700E02027880404D505E0414638469D
:10366000B0476D1C641EF9D52846BDE8F0814A6854
:10367000002A06D00A68531C0B6010704868401E70
:10368000486070470A68531C0B6010707047000058
:103690002DE9F0412DED028BFDF7CCFE2748007897
:1036A000012806D126A12948FFF75CF9002023490B
:1036B00008702748007801283BD126480088002858
:1036C00034D0244805782448FFF72EFBB0EE408A1A
:1036D000F0EE608A53EC182B20A123A001F011FC1E
:1036E00007464FF40071384601F028FB0646314684
:1036F0001FA0FFF7A1FA304600F0DEFB384601F0CC
:10370000ACFA384600F0D8FB0020124908809FED43
:103710001A0BB0EE408AF0EE608A002404E000202C
:103720000D490855601CC4B2AC42F8DB00200849C2
:103730000870BDEC028BBDE8F08100006300002042
:10374000726571756972650D0A00000000440040E1
:10375000620000206E000020700200206865617227
:1037600074726174650000007B73697D0000000065
:1037700025730A0D0000000000000000000000009A
:1037800070B50D4604998C0099008918AA0010188C
:103790002246FCF7AAFD70BD10B5FDF731FF10BD44
:1037A0000A680C30824204D14868824201D101206B
:1037B000704700207047000006200649087000BFCF
:1037C000044801780078401E024A10700029F7D1A1
:1037D000704700000000002010200649087000BF5C
:1037E000044801780078401E024A10700029F7D181
:1037F000704700000000002010B504466FF0040080
:10380000FEF730FFE11704EB5171C1F3C701074A1E
:1038100011701046007800EB4001C1EBC0104FF66C
:10382000FF7101EAC0000249088010BD6400002059
:103830006600002070B504464FF4077094FBF0F06A
:10384000C6B24FF4077094FBF0F100FB114085B253
:1038500005E04FF4077000F053F8701EC6B2002E5A
:10386000F7D115B1284600F04BF870BD01464FF076
:10387000E022516100224FF0E0239A611A4612695A
:1038800042F001021A6100BF4FF0E022106900F01F
:1038900001021AB100F48032002AF5D04FF0E02284
:1038A000126922F001024FF0E0231A6100229A61AE
:1038B000704700000146114A12784A434FF0E02356
:1038C0005A6100229A611A46126942F001021A6195
:1038D00000BF4FF0E022106900F001021AB100F4BD
:1038E0008032002AF5D04FF0E022126922F0010266
:1038F0004FF0E0231A6100229A61704764000020B3
:103900000146114A12884A434FF0E0235A610022CF
:103910009A611A46126942F001021A6100BF4FF023
:10392000E022106900F001021AB100F48032002A8E
:10393000F5D04FF0E022126922F001024FF0E023AF
:103940001A6100229A61704766000020FFB59DB0A1
:103950001D98269D1C460E4600287DD0007801212A
:103960000300FFF7BBF9089841321121090D0579D1
:103970002A460421C9A08EE12A460421C9A08AE171
:103980002A460521C9A086E11D9801F013FA01918C
:103990000090C8A2642102A8FFF75EF901466428DE
:1039A0005AD22A4602A876E11D9801F0D0FA3204D4
:1039B000D20E009202460B46642101A801F050FB92
:1039C000010049D42A4601A865E11D9801F0CBFA0F
:1039D00007461D9801F0D0FA2B462246394600963C
:1039E00000F0AEF921B0F0BD1D9F7869002842D1EA
:1039F00079611D9801F01AF902902A460121AFA0C1
:103A0000A047002837D1029800280AD01F992346E2
:103A1000002200953046491C00F062F900282AD1A6
:103A200034E0002078612A460121A5A033E1014657
:103A30001D9801F0C7F81F9A234600953146521C85
:103A4000FFF784FF002816D102980199401E814299
:103A500014DA2A46012100E014E19AA0A0470028C8
:103A600009D11F992346012200953046491C00F0D8
:103A700037F9002808D00020786103E123460022AE
:103A8000009530461F99F2E70198401C0299019079
:103A90008842CCDBC5E7B00603D58BA0039001209C
:103AA00002E08AA00390022005901D980890006A09
:103AB00000287DD1089801621D9801F0BFF9069099
:103AC0002A46012182A0A0470028F2D106980028AA
:103AD0006FD01F992346002200953046491C00F004
:103AE000FFF80028E5D1F005800F75D01D9801F092
:103AF000FFF90290C00001F059FB0190002857D057
:103B00000027069800F067FB0146F800019A009034
:103B10001150069801F09EF90146019A009880180C
:103B2000416006991D9801F09BF97F1C06900028C2
:103B3000E7D10298874228D1300601D5654B00E0D5
:103B4000654B082202990198FCF781FB00274BE0A6
:103B50000198F90008184068069001461D9801F088
:103B60005FF90990002810D00698FCF7E8FB0146A1
:103B70002B4622460096069800F0E2F82A46059960
:103B80000398A047002823D101E0AFF300801F9ADB
:103B9000234600953146521C0998FFF7D7FE0028AE
:103BA00016D10298401E874217D22A46012101E011
:103BB00065E06AE043A0A047002809D11F99234689
:103BC000012200953046491C00F08AF800280AD0EE
:103BD000019801F0E3FA52E039E023460022009513
:103BE00030461F99F0E77F1C02988742B0D30198B6
:103BF00001F0D4FA49E0069801F040F91F9A2346F3
:103C000000953146521CFFF7A1FE002837D10498D9
:103C1000002810D02A4601212AA0A04700282ED132
:103C20001F992346012200953046491C00F058F8A0
:103C3000002824D109E023460022009530461F9930
:103C400000F04EF800281AD11FE00498069006995B
:103C50001D9801F005F90490069801F0FBF807465D
:103C6000FCF76DFB01462B4622463846009600F0D5
:103C700067F82A4605990398A0470028BBD0089901
:103C8000002008620020C043ACE6089900200862CA
:103C90002A46012111A0A047A4E600006E756C6CB5
:103CA00000000000747275650000000066616C73AE
:103CB00065000000256C6C64000000005B000000E3
:103CC0005D0000002C0000003A0000003A200000D7
:103CD0007B000000815300088D5300087D00000028
:103CE000F8B50E461C46C10618D0C006C00E00909E
:103CF000012110A0069AA0470027FF43002807D102
:103D0000002508E00C48069A0099A047002801D039
:103D10003846F8BD6D1CB542F4DB08E0002A06D039
:103D2000800604D4012105A0069A9847F8BD00201A
:103D3000F8BD00000A000000186100082000000023
:103D4000FFB589B00F4606460B9B012140A00C9A97
:103D50009847002875D135463446F71918E0791B85
:103D600002AA284602F031F904006AD002985C28C1
:103D700010D022280ED020280CDB1299490501D53D
:103D80002F2807D01299490601D57F2802DC254645
:103D9000BC42E4D3B54206D00B9BA91B30460C9A1B
:103DA000984700284DD1AC4206D10B9B012128A099
:103DB0000C9A98470DB0F0BD029A02210D2A23D02B
:103DC00008DC082A1AD0092A20D00A2A1AD00C2A7C
:103DD00006D115E0222A0FD02F2A19D05C2A09D04B
:103DE00001200004824215DA1AA105A8FEF74CFF53
:103DF000062120E019A01FE019A01DE019A01BE07A
:103E000019A019E019A017E019A015E019A013E0F6
:103E100019A011E0101A01031B22890DD2028A1881
:103E2000029080053721800D8902431813A105A84F
:103E3000FEF72AFF0C2105A80B9B0C9A9847002837
:103E400002D00020C043B5E725462E46A0E700007B
:103E5000220000005C752530345800005C5C0000D6
:103E60005C2200005C6200005C6600005C6E00008A
:103E70005C7200005C7400005C2F00005C752530F3
:103E800034585C75253034580000000013460A464B
:103E900010B50146184601F0EBFC10BD00BF054A05
:103EA000128802F04002002AF9D0C2B2014B9A8077
:103EB000704700000010014010B5002821D0114BC0
:103EC0000022001F196803E0814203D80A464968AE
:103ED0000029F9D152B11368841A9C4204D10068B8
:103EE00018441060104602E0506000E0186039B1DC
:103EF00002680B1A934203D10B681A4402604968A6
:103F0000416010BDA800002070B5044688184E4AD4
:103F100080180246154646E023785B1965782D0225
:103F2000EB18A5782D04EB18E5782D06EE1823790B
:103F30009A1863791B029A18A3791B049A18E379DB
:103F40001B069B18227A1018627A12021018A27AA5
:103F500012041018E27A12061518701B1C262A4645
:103F6000F24142401046ED181B1A1A26F2415A40FF
:103F700013464019ED1A1826F2416A4015461B18DF
:103F8000401B1026F2414240EE1810461B1A0D2528
:103F9000EA4153408519F21A18461C26F041504058
:103FA0005A190C390C340C29B6D80B00FEF796FEC2
:103FB0000D4A2724211E1C191613110E0B08290067
:103FC000E17A09060818A17A09040818617A090239
:103FD0000818217A0818E17909068A18A1790904D4
:103FE0008A18617909028A1821798A18E178090604
:103FF0004D19A17809044D19617809024D192178EC
:104000004D1912231146D9415040411A1523084633
:104010004D40D841281A07240346E3414240D21AB2
:1040200010241346E3415140C91A1C240B46484052
:10403000E341C01A42401223D841101A41400822DD
:10404000D041081A70BD0000EFBEADDE10B50446C9
:1040500000F004F8606801F0A1F810BD70B50546E5
:104060000C35046908E06668A068241F00F01BFE98
:10407000204601F093F83446AC42F4D170BDF8B557
:104080000446406801F08AF8A1680126491C3046C0
:104090008840A1600090C00001F088F860600028AE
:1040A00003D0002025460C3509E00020C043F8BDB0
:1040B000C10062680B1DD5506268401C5550227AC1
:1040C000314691408142F3D822696D602D600DE048
:1040D000171F566838680099FCF772F86068C900C5
:1040E00041183A1D204600F0E8FC3246AA42EFD1C2
:1040F0000020F8BDFFB581B01F460E46FFF750FB0C
:10410000002813D13468251F2868B84206D12846F4
:1041100014300399FCF71AF9002804D07068A04203
:1041200004D06468EFE7284605B0F0BD0020FBE747
:1041300070B504460D460846FCF701F90B490A68BC
:1041400001462846FFF7E0FE237A01219940491EE7
:1041500001406268C900511803462A462046FFF70D
:10416000C9FF002800D0C06870BD0000A00000207A
:1041700070B50446002020600320A060402001F0BC
:1041800015F86060002806D020460C302061002120
:104190000123E06009E00020C04370BDCA006568EB
:1041A000161DA8516568491CA850257A1A46AA40D0
:1041B0008A42F3D8002070BD00B501460C3100F0F2
:1041C00003F800BD10307047024648680C32904238
:1041D00000D100207047C0687047806870470000B9
:1041E000FFB50546027A012401682046904081B05F
:1041F0001F46814204D32846FFF741FF002840D1E3
:104200000298FCF79CF820490A6801460298FFF7DB
:104210007BFE0646287A33468440641E3440686834
:10422000E1004018009001462846029AFFF762FF1D
:10423000040004D0E06800F036FDE7601EE002985C
:10424000FCF77DF81521C8421BD2153000F0AEFFF7
:10425000040016D02660039820612046143002998D
:10426000FCF782F8201DA060E7606060221D2846F0
:10427000009900F022FC2868401C2860002005B04E
:10428000F0BD0020C043FAE7A00000202DE9FF4167
:104290000646012718A30FCB8DE80F003046FDF727
:1042A00097FB21E01848008800F40040E0B1164870
:1042B000057800201449088069461448FCF746F840
:1042C00018B93046FDF77CFA05E011A10F48FCF75C
:1042D0003DF800B90027002404E000200B490855F0
:1042E000601CC4B2AC42F8DB002FDBD13046FDF7D6
:1042F00011FBBDE8FF810000686561727472617432
:10430000655F6C65667400006C000020A8010020E9
:10431000687253686F74646F776E000070B52DED2E
:10432000028B01F073FE2648007868B925A1284861
:10433000FEF718FB01202249087008460078012882
:1043400002D124A0FEF778FC24480078012834D15B
:1043500023A0FEF771FC25A11D48FEF703FB00BF5B
:10436000244800880028FBD0224805782248FEF720
:10437000DBFCB0EE408AF0EE608A53EC182B1FA0F5
:10438000FEF75AFC9FED1F0BB0EE408AF0EE608AFC
:10439000002018490880002404E000201649085530
:1043A000601CC4B2AC42F8DB00200C49087008461F
:1043B000007810B915A0FEF73FFCBDEC028B70BD74
:1043C00063000020726571756972650D0A00000056
:1043D00000440040596573210A000000620000207B
:1043E0006D61726B3D3D310A0000000052656164F1
:1043F0000D0A00006E00002070020020252E32669B
:104400000D0A000000000000000000006D61726BEA
:104410003D3D300D0A00000000B50346EBB9002019
:104420001F4908601F48006820F003001D4908600C
:104430000846006840F00100086000201A49C1F8F1
:104440008002FFF7B9F9012015490860FFF7B4F9B8
:1044500000201549C1F8840220E0012B1ED1002064
:104460000F491C3108600F48006820F440200D49B6
:1044700008600846006840F48020086000200A496F
:10448000C1F8A402FFF798F9012005491C31086022
:10449000FFF792F900200449C1F8A00200BD000016
:1044A0008482404200040240008040421CB5044621
:1044B000E4B901210220FDF7C7FD0320009001208F
:1044C0008DF8040000208DF8060003208DF805000B
:1044D00001208DF8070069463148FCF7F9FD0120FD
:1044E000304908603049C1F8800257E0012C1ED1E4
:1044F00001210220FDF7A8FD4FF44070009001203B
:104500008DF8040000208DF8060003208DF80500CA
:1045100001208DF8070069462148FCF7D9FD0120EC
:1045200020491C3108602049C1F8A40236E0022C61
:1045300034D101210220FDF787FD032000900120E6
:104540008DF8040000208DF8060003208DF805008A
:1045500001208DF8070069461148FCF7B9FD4FF4BA
:104560004070009001208DF8040000208DF80600B6
:1045700003208DF8050001208DF8070069460848E2
:10458000FCF7A6FD0120074908600749C1F8800231
:1045900004491C3108600449C1F8A4021CBD000094
:1045A00000040240848240420080404200B503463D
:1045B000EBB900201F4908601F48006820F0030085
:1045C0001D4908600846006840F0010008600120AD
:1045D0001A49C1F88002FFF7EFF801201549086079
:1045E000FFF7EAF800201549C1F8840220E0012B0A
:1045F0001ED100200F491C3108600F48006820F4CC
:1046000040200D4908600846006840F4802008609A
:1046100001200A49C1F8A402FFF7CEF8012005499C
:104620001C310860FFF7C8F800200449C1F8A00257
:1046300000BD0000848240420004024000804042ED
:104640002DE9F04380460D4616461C46DDF81C90C9
:10465000404600F01FF92946404600F0C1F84046A8
:1046600000F0ACF93146404600F0BAF8404600F0A0
:10467000A5F9404600F00EF9681CC1B2404600F0B2
:10468000AFF8404600F09AF9002707E001214046C4
:1046900000F03CF82070641C781CC7B2A9F101003E
:1046A000B842F3DC0021404600F030F8207040466C
:1046B00000F03CF9BDE8F083F0B506460C4615461F
:1046C000304600F0E7F82146304600F089F83046E1
:1046D00000F074F92946304600F082F8304600F0C8
:1046E0006DF9304600F0D6F8601CC1B2304600F0DB
:1046F00077F8304600F062F90021304600F006F805
:104700000746304600F012F93846F0BDF0B50646CF
:104710000F4600200546002E2BD12E48006820F0C1
:1047200003002C490860084600680860002414E073
:10473000002029490860FFF74FF801202749C1F8F8
:1047400084026806050E24488438006808B1681C95
:10475000C5B2FFF731F8601CC4B2082CE8DB1FB902
:104760003046FFF723FF02E03046FFF755FE2846AC
:10477000F0BD012E2CD11748006820F440201549C7
:104780000860084600680860002415E0002012490F
:104790001C310860FFF720F801201049C1F8A00281
:1047A0006806050E0C486038006808B1681CC5B280
:1047B000FFF702F8601CC4B2082CE7DB1FB93046D3
:1047C000FFF7F4FE02E03046FFF726FE2846CFE76B
:1047D00000BFCDE700040240848240420080404296
:1047E00030B505460C462DBB2748006820F0030075
:1047F000254908600846006840F001000860002074
:1048000022490860002312E0E0092049091F0860DE
:104810006006040EFEF7D0FF01201D49C1F8840296
:10482000FEF7CAFF002019490860581CC3B2082BC4
:10483000EADB28E0012D26D11348006820F440204F
:10484000114908600846006840F480200860002094
:104850000E491C310860002313E0E0090B492031A8
:1048600008606006040EFEF7A7FF01200849C1F8A2
:10487000A002FEF7A1FF002004491C310860581C6B
:10488000C3B2082BE9DB30BD000402408482404201
:104890000080404200B50346F3B92148006820F08B
:1048A00003001F4908600846006840F001000860E6
:1048B00001201C4908601C49C1F88402FEF77CFFF6
:1048C000002018490860FEF777FF00201649C1F85C
:1048D0008402FEF771FF21E0012B1FD11048006810
:1048E00020F440200E4908600846006840F480200B
:1048F000086001200B49243108600B49C1F8A0026F
:10490000FEF75AFF0020074924310860FEF754FFE4
:1049100000200549C1F8A002FEF74EFF00BD0000CF
:1049200000040240808240420080404200B50346BD
:10493000E3B91F48006820F003001D4908600846DD
:10494000006840F00100086000201A4908601A4918
:10495000C1F88002012017490860FEF72DFF0120F1
:104960001549C1F88002FEF727FF1FE0012B1DD17A
:104970000F48006820F440200D4908600846006890
:1049800040F48020086000200A491C3108600A4970
:10499000C1F8A402012007491C310860FEF70CFF92
:1049A00001200549C1F8A402FEF706FF00BD000082
:1049B00000040240848240420080404230B50546F7
:1049C0000020044635BB2948006820F00300274931
:1049D0000860084600680860012025490860FEF765
:1049E000EBFE01202349C1F88402FEF7E5FE08E052
:1049F000601CC4B2FA2C04DD2846FFF797FF0120A3
:104A000030BD1B48803800680028F1D11849091DC5
:104A10000860F5E7012D27D11448006820F44020F4
:104A200012490860084600680860012010492431D6
:104A30000860FEF7C1FE01200E49C1F8A002FEF792
:104A4000BBFE08E0601CC4B2FA2C04DD2846FFF768
:104A50006DFF0120D4E706485C3800680028F1D1DA
:104A6000034920310860CBE700BFC9E700040240DA
:104A70008082404200804042F0B506460F46144610
:104A80001D463046FFF706FF39463046FFF7A8FEC1
:104A90003046FFF793FF21463046FFF7A1FE304630
:104AA000FFF78CFF29463046FFF79AFE3046FFF7A6
:104AB00085FF3046FFF73AFFF0BD70B515460C464E
:104AC0000646FEF76DFE002806D0304629460C301B
:104AD00000F094FB656003E02946206800F08EFB3F
:104AE000256070BDF0B503460D46164600272946E1
:104AF0000A2E03D0002008702846F0BD33B93020BC
:104B000001F8010B002008702846F6E7002B03DAB5
:104B10002D2001F8010B5B4242F210720DE093FB75
:104B2000F2F404B937B104F1300001F8010B04FBD1
:104B3000123301270A2092FBF0F2002AEFDC00205A
:104B400008702846D9E770B5182000F02FFB040044
:104B50000ED0012020700025E56060600820A06074
:104B6000202000F023FB2061002802D02046656150
:104B700070BD204600F012FB002070BD70B5104ED5
:104B80000D0005D0002817D00178012914D101E0CB
:104B9000304670BDA8420FD001220446114600F0F5
:104BA0001FF8002808D0E168206989004550E068B6
:104BB000401CE060002070BD284600F068F8E7E780
:104BC000FFFFFFFF002805D00278012A02D1C2684A
:104BD0008A4201D800207047006989004058704718
:104BE000F8B50546C06817464318AA682869934275
:104BF00019D9064654185000844200D80446A00033
:104C000000F0D4FA00280ED0AC602861002F0BD041
:104C1000E9680023009132461946FEF7B1FD30469F
:104C200000F0BCFA2869F8BD3046F8BD002802D073
:104C30000178012901D000207047C068704710B585
:104C400004464CB16068401C30B16068401E606032
:104C500010B9204600F033F810BD10B504464CB131
:104C60006068401C30B16068401E606010B920462A
:104C700000F025F810BD10B5002807D041684A1C87
:104C800004D0491E416001D100F019F810BD10B5E3
:104C9000002807D041684A1C04D0491E416001D158
:104CA00000F00DF810BD10B5002807D041684A1C6F
:104CB00004D0491E416001D100F001F810BD70B56B
:104CC00000280AD00178002908D001290BD0022938
:104CD0001AD0032915D0042913D070BD044608301A
:104CE000FFF7B4F90CE00446002504E0A9004058A1
:104CF000FFF7CDFF6D1CE068A8422069F6D805E0FB
:104D0000204600F04BFA70BD0446806800F046FA79
:104D1000F6E738B51C469B0509D4002804D0037873
:104D2000012B04D0002B02D00020C04338BD0B461D
:104D3000009200222146FEF709FE38BD3EB5054629
:104D40000C46684600F0D8FD002801D000203EBD8A
:104D500023466A4609492846FFF7DBFF002801D0B1
:104D6000002405E0684600F0DDFD00F027FA044667
:104D7000684600F0B5FD20463EBD00008D3E0008AF
:104D80000048704788000020002804D041684A1C71
:104D900001D0491C4160704770B504460D46102093
:104DA00000F004FA002804D0032101700121021D43
:104DB00032C270BD002802D00178032902D0002041
:104DC000014670478268C1681046704700487047C6
:104DD0009000002010B5242000F0E8F9040004D071
:104DE0000E480068002802D004E0002010BD00201A
:104DF00000F04AF800202070012060602046083052
:104E0000FFF7B6F9002803D0204600F0C7F9ECE719
:104E10000020E0612062204610BD0000A0000020BC
:104E200010B5002904D0002802D00278002A01D051
:104E3000002010BD0830FFF77BF910BD10B5002829
:104E400002D00178002901D0002010BD0830FFF702
:104E5000B3F910BD10B5002801D0FFF7B3F910BDAC
:104E600010B5002808D00278002A05D1002903D007
:104E70000830FFF7A9F910BD002010BD10B50028BB
:104E800001D0FFF7AAF910BD38B5084C21680029F8
:104E90000AD1002807D1684600F0D0FC009800280D
:104EA00001D101200090206038BD0000A00000204A
:104EB00070B50E4D140007D0002912D0002810D074
:104EC0000278002A0DD101E0284670BDA04208D02A
:104ED000C269531CC36123460830FFF781F90028DB
:104EE000F3D02046FFF7D3FEEEE70000FFFFFFFF01
:104EF000002802D00178002901D000207047806886
:104F000070470FB410B5002103AB0846029A00F0B9
:104F100045F810BC08BC04B0184770B504460D46EF
:104F2000FDF7F4FE002805D120462946FDF7E3FEF3
:104F3000002801D0002070BD102000F037F90028B3
:104F4000F9D0042101700121021D32C270BD002878
:104F500002D00178042902D00020014670478268FF
:104F6000C16810467047002802D00178022901D09C
:104F700000207047C0687047002802D001780229DD
:104F800001D0002070478068704710B5002200F003
:104F9000CBFC10BD0048704780000020F0B595B0F4
:104FA0001D4614000E46074629D02078002826D03A
:104FB0000021384600F0A4F823463246394601A8BD
:104FC00000F026FC01A800F09BF914A901A8149593
:104FD00000F0EAF9044600201490002C1BD001A830
:104FE00000F08EF908A8007A0028204614D0FFF7B8
:104FF00042FE0AA210A101A800F023FC0BE00EA1C2
:10500000384600F07DF80FA00023591E00900A4694
:10501000384600F086F8002015B0F0BD4761726296
:1050200061676520616674657220666F726D617478
:1050300020737472696E67003C666F726D61743EB6
:10504000000000004E554C4C206F7220656D70744E
:105050007920666F726D617420737472696E670077
:10506000FEB5074608980C46002800D11120019390
:105070000092034620A23846FDF7EEFD0026F643D7
:10508000002811DB0546A0420ED22E213846FBF740
:105090004CF9002812D165213846FBF746F9002863
:1050A0000CD1E81CA04201D33046FEBD2E2078551D
:1050B00030217819417000218170AD1C652138467E
:1050C000FBF733F9002814D0461C841C40782D28A7
:1050D00002D1761C00E0641C20783028FBD0B4425A
:1050E00007D0E01B2A1A21463046FBF7FEF8A01B2A
:1050F0002D1A2846FEBD0000252E2A67000000005C
:1051000010B500280AD000225C231A54531E0360F5
:1051100043608260002902D000F00CF810BD0273D9
:1051200010BD1CB505AC0194049C009400F020F85F
:105130001CBD000070B504000D4616D0002D14D023
:105140000846FBF7FCF822460C32502802D22946CA
:10515000104608E006464C3E04A11046FBF704F951
:105160002046A9190F30FBF7FFF870BD2E2E2E0038
:1051700070B50400059D04980FD05C26365D002EA6
:105180000BD10EC4024620462B46A02150300C3CC9
:10519000FDF78EFD0020E034E07670BD002802D0DF
:1051A000014949680847704798000020002802D04C
:1051B00001490968084770479800002010B5044667
:1051C000FBF7BDF80146204600F006F810BD10B50B
:1051D000012200F0A9FB10BD70B506460C46481C24
:1051E000FFF7E4FF050007D022463146FBF77DF8C4
:1051F00000202855284670BD002070BD4860026818
:105200000A60026851600160704700004FF4A060BE
:10521000FCF70EFFA820FEF7EFFA0220FFF746F991
:105220004FF4E13000F0F8FD4FF4E13000F09EFD66
:10523000FBF7E4FEFCF7ACFF42F2CF0141F287300E
:10524000FDF76AFAFBF762FEFDF7E4F9FDF794F962
:105250001BE000BF0D4800880028FBD00B480088E9
:1052600000F4004088B10A4D08480478002007493E
:1052700008802146284600F077FB002603E0002046
:10528000A855701CC6B2A642F9DBE2E76C0000200C
:10529000A8010020F0B50B30154D20F007010024C7
:1052A000144A0FE003688B420BD38B4205D95E1A78
:1052B00043184768C3E9006700E04368136002C011
:1052C00004E0021D10680028ECD12046002802D11D
:1052D000286808B10020F0BD064A07481060074A58
:1052E000121A22F00702C0E9002401202860D7E743
:1052F000AC000020A80000203C030020380F002054
:10530000014610B518311EC908301EC00169183891
:10531000002907D002462C321CCA18301EC00021BA
:10532000016010BD426C4168521C4264826C521C88
:105330000123826408E00A2A1DD0426C521C426498
:10534000826C521C491C82640A78202AF3D0092AF4
:10535000F1D00A2AEFD02C2AEDD03A2AEBD0D3B2E2
:1053600024221354026C8261426CC261826C491C1B
:105370000262416010BD026C4364521C0264DFE7AC
:1053800010B549684068FAF7E1FF10BD0068096888
:10539000884202D20020C0437047884201D00120D9
:1053A00070470020704700000EB52422135C692B63
:1053B00042D00CDC5B2B1BD004DC492B42D04F2BA2
:1053C0000DD155E0622B2BD0662B08D145E06E2B1A
:1053D00023D06F2B53D0732B0DD07B2B05D02AA25B
:1053E00032A100F02EFA00200EBD00F0C1F80EBD73
:1053F00000F066F80EBD02AA009201AB2EA200F0EA
:1054000059F90028F6D002990029019902D0FFF736
:10541000DEFE0EBDFFF7B9FD0EBDFFF7D7FC0EBDDA
:105420000868021D0A600068002802D0FFF7B2FD7C
:105430000EBDFFF7A5FC0EBD0868021D0A600068DE
:10544000C11707E00868C01DC208D2001046083026
:10545000086003CAFFF7A0FC0EBD0868C01DC208A3
:10546000D20010460830086003CAFFF756FD0EBD93
:105470000868021D0A600068FFF786FC0EBD086818
:10548000021D0A6000680EBD556E65787065637414
:10549000656420666F726D61742063686172616318
:1054A0007465722027256327000000003C666F7238
:1054B0006D61743E00000000737472696E670000D5
:1054C000F8B50F460546FFF73EFB06462846FFF7B0
:1054D00017FF2C4620341CE0002814D039462846FB
:1054E000FFF762FF010009D03046FFF747FB0028B5
:1054F0000CD00AA210A1284600F0A3F93046FFF70D
:10550000BAFB0020F8BD0FA216A1F4E72846FFF76A
:10551000F7FE20795D28DFD13046F8BD556E616217
:105520006C6520746F20617070656E6420746F20EC
:1055300061727261790000003C696E7465726E611F
:105540006C3E0000556E6578706563746564206517
:105550006E64206F6620666F726D61742073747262
:10556000696E67003C666F726D61743E00000000FA
:10557000F0B585B00E460546FFF72CFC0190284695
:10558000FFF7BEFE2C46203446E0002B04D0732BE0
:1055900008D024A22BA127E02DA22AA1284600F0A2
:1055A00050F92BE002A8009004AB31A23146284606
:1055B00000F080F8070021D02846FFF7A1FE314611
:1055C0002846FFF7F1FE020012D039460198FFF796
:1055D0006FFC0028029817D0002802D03846FFF749
:1055E000DDFD3B4625A22BA1284600F02AF905E067
:1055F0000298002802D03846FFF7D0FD0198FFF747
:105600003AFB002005B0F0BD002802D03846FFF775
:10561000C5FD2846FFF774FE23797D2BB5D101988F
:10562000F0E70000457870656374656420666F720A
:105630006D6174202773272C20676F7420272563E2
:10564000270000003C666F726D61743E0000000030
:10565000556E657870656374656420656E64206F4F
:105660006620666F726D617420737472696E670074
:105670006F626A656374206B65790000556E6162C4
:105680006C6520746F20616464206B65792022252D
:10569000732200003C696E7465726E616C3E00009E
:1056A000014610B518311EC928301EC030381EC83A
:1056B0001EC010BDFFB583B01F460C460398FFF710
:1056C0001FFE039D039820352E79FFF7E9FF232E57
:1056D00027D0252E25D02B2E23D02068011D216018
:1056E0000468002C10D02046FAF729FE0546014632
:1056F000204600F04BFC00280CD03D600C980021A7
:105700000160204607B0F0BD2DA233A1039800F040
:1057100098F853E032A230A1059B039800F091F86D
:105720004CE0684600F0E8F82068011D216006683A
:10573000002E2CD00398FFF7E3FD2879232829D0E9
:10574000252827D00398FFF7ABFF3046FAF7F7FD7F
:1057500002463146684600F08BF8401C1FD0039883
:10576000FFF7CEFD28792B28DED00398FFF798FFAE
:105770000199009800F00AFC002816D001983860C2
:105780000C9801210160684600F0C7F8BAE70CA246
:1057900011A106E02068011D21600268D9E715A269
:1057A00018A1039800F04DF805E00DA20AA1059B91
:1057B000039800F046F8684600F092F80020A1E750
:1057C0004E554C4C20737472696E67206172677518
:1057D0006D656E74000000003C617267733E0000EE
:1057E000496E76616C6964205554462D38202573C6
:1057F000000000004F7574206F66206D656D6F723C
:10580000790000003C696E7465726E616C3E000048
:1058100003604360C263816300218160C1600161F4
:1058200041618161C161016241628162C162016362
:105830004163012241640264816470470146002093
:1058400070470FB47CB5044609A801900D4608982E
:105850000090214618310EC9A06BFFF789FC29463C
:10586000A06BFFF767FC7CBC08BC04B018470000C5
:10587000F7B504468168406816460A1AB2421BD83A
:10588000164A914227D8B21C25D85242904222D8BB
:105890004D00711C4018854200D805462846FFF788
:1058A00085FC070017D006CC083CFAF71EFD2068DF
:1058B000FFF774FC2760A56003CC32464018083C13
:1058C0000199FAF712FD6068801960602268002172
:1058D00011540846FEBD0020C043FEBDFFFFFF7F00
:1058E00010B504460068002801D0FFF757FC0020DF
:1058F000A0606060206010BD70B5044600251020D7
:105900006560A060FFF752FC2060002802D005709F
:10591000002070BD0020C04370BD002201680260FD
:10592000084670470068704770B515460E46002857
:1059300011D0002D01D0044603E0FFF74DFC040018
:1059400009D01020FFF732FC002805D00221017099
:105950000121021D52C270BD002D02D12046FFF769
:105960001DFC002070BD000070B5AAB005460E46B3
:1059700051A207CA27AB07C352A103C9CDE925012C
:1059800052A30FCB21AC0FC454A3D3E90012D3E927
:105990000203CDE91F03CDE91D1254A30FCB19ACAF
:1059A0000FC456A3D3E90012D3E90203CDE91703CC
:1059B000CDE91512142255A110A8FAF796FC182269
:1059C00057A10AA8FAF791FC14225BA105A8FAF7DF
:1059D0008CFC14225DA16846FAF787FC27A92846AB
:1059E000FAF7B4FC48B9002403E000202855601CF5
:1059F000C4B2B442F9DBFCF739F925A92846FAF715
:105A0000A5FC48B9002403E000202855601CC4B25E
:105A1000B442F9DBFCF734FC19A92846FAF796FCE6
:105A200010B90120FEF732FC1DA92846FAF78EFCBA
:105A300068B900204A490880002403E00020285566
:105A4000601CC4B2B442F9DB0020FEF71FFC21A9A0
:105A50002846FAF77BFC08B9FEF760FC15A9284632
:105A6000FAF774FC08B9FDF797FE10A92846FAF773
:105A70006DFC08B9FDF70CFE0AA92846FAF766FC8A
:105A800008B900F0F9F805A92846FAF75FFC08B94B
:105A900000F078F869462846FAF758FC48B931A171
:105AA0003248FCF75FFF00203149087031A0FDF754
:105AB000C3F82AB070BD0000706C6174666F726DBF
:105AC000000000007267624C454400006865696729
:105AD00068745F7765696768740000006865617263
